:1000000000060020310500005905000059050000D8
:1000100000000000000000000000000000000000E0
:100020000000000000000000000000005905000072
:100030000000000000000000590500005905000004
:100040005905000059050000590500005905000038
:100050005905000059050000590500005905000028
:10006000D528000059050000DF28000059050000D0
:100070005905000059050000590500005905000008
:1000800059050000590500005905000059050000F8
:100090005D1C0000751C000059050000590500009A
:1000A00059050000590500005905000059050000D8
:1000B00059050000590500005905000059050000C8
:10040000FFFFFFFFFFFFFFFFFFFFFFFFFE3DFFFFBF
:1004100008B5054B054803331B1A062B03D9044BBB
:10042000002B00D0984708BD98FFFF1F98FFFF1FC3
:10043000000000000648074908B5091A8910CB0FCB
:100440005918491003D0044B002B00D0984708BD21
:1004500098FFFF1F98FFFF1F0000000010B5074C1A
:100460002378002B09D1FFF7D3FF054B002B02D0D7
:10047000044800E000BF0123237010BD98FFFF1F58
:1004800000000000644B000008B5094B002B03D0AE
:100490000848094900E000BF08480368002B02D162
:1004A000FFF7C8FF08BD064B002BF9D09847F7E7C8
:1004B00000000000644B00009CFFFF1F94FFFF1F23
:1004C00000000000144B002B00D1124B9D4640222F
:1004D00092029A1A924600218B460F461148124A00
:1004E000121A04F09EF80D4B002B00D098470C4BCD
:1004F000002B00D098470020002104000D000B487D
:1005000004F013F804F04AF82000290001F09CFCE4
:1005100004F01AF8000008000006002000000000A7
:100520000000000098FFFF1FD0020020754500006A
:1005300072B606480649074A02600A6002F0D4F91A
:1005400002F014FA62B6FFF7BDFF000080E100E0A0
:1005500080E200E0FFFFFFFF004800475905000070
:1005600002B4714649084900095649008E4402BC4C
:100570007047C04602B4714649084900095C490009
:100580008E4402BC7047C046002243088B4274D39D
:1005900003098B425FD3030A8B4244D3030B8B4284
:1005A00028D3030C8B420DD3FF22090212BA030C8D
:1005B0008B4202D31212090265D0030B8B4219D36E
:1005C00000E0090AC30B8B4201D3CB03C01A52418E
:1005D000830B8B4201D38B03C01A5241430B8B42D6
:1005E00001D34B03C01A5241030B8B4201D30B03BF
:1005F000C01A5241C30A8B4201D3CB02C01A5241E6
:10060000830A8B4201D38B02C01A5241430A8B42A8
:1006100001D34B02C01A5241030A8B4201D30B0291
:10062000C01A5241CDD2C3098B4201D3CB01C01AAB
:10063000524183098B4201D38B01C01A52414309B5
:100640008B4201D34B01C01A524103098B4201D3A3
:100650000B01C01A5241C3088B4201D3CB00C01A10
:10066000524183088B4201D38B00C01A5241430888
:100670008B4201D34B00C01A5241411A00D20146AD
:10068000524110467047FFE701B5002000F0FCF82A
:1006900002BDC0460029F7D003B5FFF775FF0EBCB9
:1006A0004243891A1847C04603460B437FD40022B1
:1006B00043088B4274D303098B425FD3030A8B42F6
:1006C00044D3030B8B4228D3030C8B420DD3FF2260
:1006D000090212BA030C8B4202D31212090265D02E
:1006E000030B8B4219D300E0090AC30B8B4201D3E1
:1006F000CB03C01A5241830B8B4201D38B03C01A28
:100700005241430B8B4201D34B03C01A5241030B9E
:100710008B4201D30B03C01A5241C30A8B4201D34F
:10072000CB02C01A5241830A8B4201D38B02C01AFA
:100730005241430A8B4201D34B02C01A5241030A71
:100740008B4201D30B02C01A5241CDD2C3098B4256
:1007500001D3CB01C01A524183098B4201D38B01D3
:10076000C01A524143098B4201D34B01C01A524176
:1007700003098B4201D30B01C01A5241C3088B42BB
:1007800001D3CB00C01A524183088B4201D38B00A6
:10079000C01A524143088B4201D34B00C01A524148
:1007A000411A00D201465241104670475DE0CA0F1F
:1007B00000D04942031000D34042534000229C46DF
:1007C00003098B422DD3030A8B4212D3FC228901E9
:1007D00012BA030A8B420CD3890192118B4208D3BF
:1007E000890192118B4204D389013AD0921100E021
:1007F0008909C3098B4201D3CB01C01A5241830935
:100800008B4201D38B01C01A524143098B4201D361
:100810004B01C01A524103098B4201D30B01C01A8C
:100820005241C3088B4201D3CB00C01A5241830806
:100830008B4201D38B00C01A5241D9D243088B425C
:1008400001D34B00C01A5241411A00D201466346FF
:1008500052415B10104601D34042002B00D5494263
:10086000704763465B1000D3404201B5002000F0A2
:100870000BF802BD0029F8D003B5FFF715FF0EBC39
:100880004243891A1847C0467047C046F0B55F46D4
:1008900056464D464446F0B445024600C40F83B068
:1008A0000F1C6D0A360EA34645D0FF2E25D080239F
:1008B0001B041D4300239A46ED007F3E01937B02FB
:1008C0005B0A98467800FB0F000E994640D0FF283F
:1008D00038D0802342461B041343DB009846002394
:1008E0007F384A46019F30186240411C1F430F2F3A
:1008F00069D87D4EBF00F659B746002D45D1082373
:100900000193063B9A46DAE793465346022B2FD1D2
:100910005B46012400251C40FF236D02DB056D0AA8
:10092000E4071D432543281C03B03CBC9046994670
:10093000A246AB46F0BD002D2CD104230193033B0E
:100940009A46BCE743465A4253410322D31AC8E7AA
:1009500042460123002AC4D0404601F035F9424600
:10096000431F9A4076235B42181A90460023B8E74B
:10097000032B00D1ADE0012B00D08CE05B46544648
:100980001C40E4B200230025C7E70C230193093B78
:100990009A4694E7281C01F017F97626431F9D40DC
:1009A00000237642361A01939A4688E78025002470
:1009B000ED03FF23B1E74546CB469A46A5E74546FA
:1009C00093469A46A1E743462C041B0C9C46230CF5
:1009D000444626041C1C360C2F0C7443351C6646FA
:1009E0007D4373437743EB18260C9E19B54203D918
:1009F00080235B029C46674424043304240C1B19A7
:100A00009D016C1EA5419B0E360C2B43BD19AD01FB
:100A10001D432B0104D5012368081D400543081C14
:100A2000031C7F33002B2CDD690704D00F212940E4
:100A3000042900D00435290103D52C4B1D40031C8B
:100A40008033FE2B17DD0124FF231440002564E7CB
:100A50008020C003054209D04346034206D14546E3
:100A600005436D026D0A4C46FF2356E705436D02B0
:100A70006D0AFF2351E70124AD016D0ADBB214407A
:100A80004BE77E235B421B1A1B2B07DD012400234F
:100A90001440002541E7081C5A46C1E79E30291C36
:100AA0008540D940681E85410D436B0704D00F2354
:100AB0002B40042B00D004356B0104D50124012305
:100AC0001440002529E70124AD016D0A14400023DC
:100AD00023E78023DB031D4301245B466D02234093
:100AE0001C1C6D0AFF2318E74C490000FFFFFFF7AD
:100AF000F8B54A00430244004D02C00F240E061C04
:100B00009B09120EC90FAD09FF2A00D175E001271C
:100B10007940884250D0A01A002800DC8FE0002ADB
:100B20001ED1002D00D075E05A0704D00F221A40C4
:100B3000042A00D0043380220120D2041A4030401D
:100B4000002A32D00134FF2C00D184E09B015B0AE3
:100B5000E4B25B02E4055B0A2343C0071843F8BD17
:100B6000FF2CE1D08022D20415431B287ADD012519
:100B70005B1B5A015DD59B019F09381C01F024F8CD
:100B800005388740844269DC001B1F243A1C431C43
:100B9000201ADA408740131C7C1EA74100243B43E7
:100BA000C2E7131E45D100230020DB08FF2C28D00C
:100BB0005B025B0AE4B2CCE7A11A00295BDD002AE4
:100BC0002ED0FF2CB0D08022D20415431B2974DC18
:100BD0002F1C2022CF40511A8D40691E8D413D436C
:100BE0005B195A0125D50134FF2C74D001217E4AAE
:100BF000194013405B080B4396E7002D00D088E7AF
:100C000085E7002B27D08022D20313435B025B0AC7
:100C1000FF249EE701380028AAD0FF2CA5D183E746
:100C2000002D00D180E701390029D9D0FF2CCDD18A
:100C30007AE75A0700D079E701203040B5E700286D
:100C400025D1621CD2B2012A55DD5F1B7A012DD558
:100C5000EF1A0E1C91E7FF2400237AE7624B241A57
:100C60003B4061E7291C2022C140101A8540681EC4
:100C700085410D437CE7002946D1621CD1B2012990
:100C80002BDDFF2A26D0EB185B08141C4CE7002C48
:100C900015D0FF2A1AD08024E404404223431B28A5
:100CA0004DDD0123EB1A141C0E1C62E7002F00D04F
:100CB00063E700230020002477E7012590E7002B5D
:100CC00039D0C0430028EDD0FF2AE8D12B1CFF24E7
:100CD0000E1C29E7FF24002367E7002C5AD1002BC4
:100CE0007FD0002D00D11FE75B195A01A1D53E4AE4
:100CF0000134134018E7002C15D1002B2FD1002D03
:100D00005ED02B1C0E1C0FE7002C21D1002B54D0E1
:100D1000C943002904D0FF2A4CD01B2958DD0123E8
:100D20005B19141C5DE7002B23D1002D4BD02B1C2D
:100D30000E1CFF24F8E62B1C141C0E1CF4E61E1CD3
:100D40002024C640201A8340581E83413343A9E71C
:100D5000FF2A2FD08024E40449422343DDE7002DFD
:100D600000D1E1E65A1B500100D41AE7EB1A0E1C21
:100D7000DAE6FF24002D00D1D6E68022DB08D2037C
:100D8000134204D0ED08154201D12B1C0E1CDB00D0
:100D9000FF24C9E6002B0DD0FF24002D00D1C3E6AF
:100DA0008022DB08D2031342F1D0ED081542EED1C8
:100DB0002B1CECE72B1CFF24B6E62B1C141CB3E603
:100DC000231C0020F1E6802300209B04FF24ECE696
:100DD0001F1C2024CF40611A8B40591E8B413B437E
:100DE0009EE72B1CA0E6C046FFFFFFFB4202510A14
:100DF0004200C30F120E00207E2A0DDD9D2A0CDC5E
:100E0000802000040143952A0ADC9620821AD140F2
:100E10000A1C58424240D0187047034A9818FBE712
:100E2000963A91400A1CF4E7FFFFFF7F70B5041E5D
:100E300039D0C50F00D04442201C00F0C5FE9E23CF
:100E4000261C1B1A962B07DC082801DD0838844075
:100E50006402640AD8B21EE0992B0ADD0522211C27
:100E6000121AD1400A1C011C1B318E40711E8E418A
:100E70001643052801DD421F96400F4C344072078F
:100E800004D00F221640042E00D0043462010ED488
:100E9000A401640AD8B26402C005640AED070443E1
:100EA0002C43201C70BD002500200024F3E7024BDA
:100EB0001C409F231B1AEBE7FFFFFFFBF0B55F46CB
:100EC00056464D464446F0B4051C061C080387B040
:100ED00099464F00030BCC0F92469B467F0D019421
:100EE00067D06C4B9F4236D080205B46400318434E
:100EF000C0006B0F1843684B83469C4600239846FE
:100F0000EE00674400934B4649461D03C90F5B0042
:100F100052462D0B5B0D894600D16EE05D498B4238
:100F200064D080205C4940038C4600210543ED00DD
:100F3000500F0543D20063444846FF187B1C9A4675
:100F4000009B604002900B430F2B00D9ACE053484C
:100F50009B00C3589F465B461D4300D082E0082398
:100F6000009300239B46023300269846CBE7029B62
:100F700001934346022B59D1012400250026019BF1
:100F80001C40444B00212D030A0D12052D0B154367
:100F9000434A1B0515401D436D00E4076D082543BA
:100FA000301C291C07B03CBC90469946A246AB4673
:100FB000F0BD2B434ED05B46002B00D185E1584657
:100FC00000F002FE021C2823291C9B1A161C5846FE
:100FD000D940083EB0400B1CB54003439B462E1C35
:100FE0000023304F0093BF1A98468CE7514629439F
:100FF0002ED10025002202219EE75146294323D00D
:10100000002D00D154E1281C00F0DEFD031C282136
:101010005046C91A1A1CC8405146083A914095409A
:101020000A1C05431F480021C31A85E7032B00D182
:10103000C2E1012B00D06DE14446019B00251C401C
:10104000E4B2002300269DE700250022012173E77A
:10105000032171E70423009300239B4601330026FC
:10106000984650E70C230093093B98464BE78025B0
:1010700000242D030026074B84E74B46AB46161C85
:101080000193884675E7029BAB46161C0193884680
:101090006FE7C046FF07000001FCFFFF8C4900001E
:1010A000FFFF0F800DFCFFFF330C3604360C9C460F
:1010B000331C140C1204120C5343984663465343DA
:1010C0009946634663430193331C41466343090CCD
:1010D0004B445B18994505D980204002814601990F
:1010E00049440191190C039141460904090C1B0460
:1010F0005B1804932B0C9846331C2D04290C4B438E
:10110000604600934346654658435E43009B4D430B
:101110001B0C9946AE194E448446B54203D9802330
:101120005B029946CC44350C2B1C039863448446DF
:101130000593009B36041B041B0CF3189C4460466B
:10114000039058460504060C280C84465043351C71
:1011500081466046654344434846000C83467243DB
:1011600014195C44A24203D98022520293465D4482
:10117000220CAD184A461204120C24044046A4184E
:1011800062464A4371434643604600964646704372
:101190008046100C84468844E044414505D98021AE
:1011A00049028C4600996144009101980399844654
:1011B000614499429B415B42994605984346844667
:1011C0001204120C1B049B1863449C46AB468342DA
:1011D0009B4140460A19CC44A2428941E344CC4594
:1011E000B6415C46000C8046494276425B42641838
:1011F000334398448C428941AB459B4149425B4211
:1012000019430D1C009B4544EE187602E50D2E4354
:10121000B346049B56021E43731E9E415B46D20D8D
:10122000324366021643DB010AD5012333407608B8
:101230001E435B46DB071E435B465B089B465746E7
:10124000634BFB18002B5ADD720709D00F22324086
:10125000042A05D0321DB242B6417642B344161C70
:101260005A46D20106D55A465A4B1A408023934615
:10127000DB00FB18584A934234DD0124029B002511
:101280001C400026554B7DE680205B460003034250
:1012900008D0054206D105432D032D0B4C46161CE4
:1012A0004E4B6FE65D4605432D032D0B4B4B69E618
:1012B000504600F089FC031C2033272B00DCA6E6F7
:1012C0005546083885400022ACE6281C00F07CFC1E
:1012D000021C2032272A00DC75E6083885400026EB
:1012E000AB467DE65A46F608520716435A46012495
:1012F0005502029A5B052D0B5B0D144042E6384DFA
:10130000ED1B382D0ADD0124029B00251C40002620
:10131000002337E6019B5746029391E71F2D25DCFA
:10132000304B321C9C466744BE405B46BB40371C7A
:10133000EA407E1EB74113433B431E1C5B46EB4015
:101340001D1C730709D00F233340042B05D0331D18
:10135000B342B6417642AD191E1C2B0220D50124A2
:10136000029B00251C40002601230BE65A461E4B1B
:10137000DB1BDA40131C202D1CD01C4A94465A4615
:101380006744BA40171C3E43721E96411E43072312
:101390000025334007D00F2300253340042BD6D13E
:1013A0006B076D022D0B0124F6081E43029B1C40A7
:1013B0000023E7E50027E6E780255B4601242D03AF
:1013C0001D43019B2D0323401C1C2D0B034BD9E512
:1013D000FF030000FFFFFFFEFE070000FF07000005
:1013E00002FCFFFF1E040000E2FBFFFF3E040000C2
:1013F000F0B54D4644465F465646F0B40E1C111CEF
:101400003203520A470F1743C5001A035800DB0F77
:101410009946520A4B0F83B01A43CB000193CF4B2E
:101420007400F60F640DB046400D984200D1E8E01C
:101430000123494659400B1C9E4200D1B1E0261AB7
:10144000002E00DC1CE1002842D1131C01990B4343
:1014500000D0E6E06B0700D18EE00F232B40042B79
:1014600000D189E02A1DAA42AD41802301264146D0
:101470006D427F191B043B400E40151C002B00D110
:1014800083E0B64B01349C4200D116E13A1CB44BC8
:10149000ED081A405007640552020543120B640D13
:1014A000002112030B0D1B056405120B1A43630880
:1014B000AC4CF60714401C43640064083443281CF9
:1014C000211C03B03CBC90469946A246AB46F0BDF9
:1014D000A24B9C42BED080231B041A43382E00DD51
:1014E00003E11F2E00DD3FE12020831B9946131CE2
:1014F00049468B409C46019B6046F340034301985C
:10150000F2408840011C481E81410B43EB1A9D426A
:1015100080411D1CBA1A4042171A3B0200D4A8E0B1
:101520007A02560A002E00D1CAE0301C00F04CFBB3
:10153000031C083B1F2B00DDCBE02822291C121ABC
:10154000D1409E400A1C9D4032439C4200DDC8E0D1
:101550001C1B671C1F2F00DDEDE01F23291C1C1B1B
:10156000131CA540A340F9406C1EA541FA40194345
:101570000D43171C00246DE78023012642461B04FF
:101580003B401640002B00D07BE7744BED087807FA
:101590000543FA089C423BD012036405120B640D0C
:1015A0007EE7231A9A46002B00DCA5E0002844D0F1
:1015B0006A48844200D14DE780200004024353462C
:1015C000382B00DC1CE1019B1A43511E8A41D1B229
:1015D00000224919A94280410D1CD2194042171816
:1015E0003B0246D55D4B01349C4200D169E10120AC
:1015F0005B4A6B083A4028401843D5070543570813
:1016000028E7131C01990B4300D111E74B4613E760
:101610002B1C134351D080231B031A431203120BBC
:101620003EE7013E002E00D080E0691A8D429B41CA
:10163000BA1A5B42D71A0D1C6FE7101C019B1843A6
:1016400000D107E701235B429C46E2445346002B4E
:1016500000D002E1019BD2195919A9429B415B427A
:10166000D7180D1CBCE76346034300D128E1071CD3
:1016700065466B0700D0F0E6012643461E4084E72E
:10168000002E00D081E0601C4005400D012800DCE8
:1016900007E10199681A84466545B641B81A764251
:1016A000861B300200D4A1E08C464D1BAC4589411D
:1016B000D21B4942561A984634E700220025EFE62D
:1016C000281C00F081FA2030031C083B1F2B00DC93
:1016D00033E7021C283A95402A1C00259C4200DC76
:1016E00036E71F4FE41A1740B4E6019B1A43511E18
:1016F0008A41D3B2002209E7002B00D001E1601C2F
:1017000043055B0D012B00DCB0E0144B984200D187
:101710001EE1019BD2195919A9429B415B42D21883
:101720004908D5070D435708041C93E60B4B9C4210
:1017300000D0D3E68EE6211C131C1F39CB40191CA8
:10174000202F00D18EE03F231C1BA24015436A1EB0
:10175000954100270D4300248BE7C046FF0700009A
:10176000FFFF7FFFFFFF0F80331C101C203BD84082
:10177000202E79D040239B1B9A40131C019A1343BF
:10178000591E8B4100220343C0E6002C53D0C74CA6
:10179000A04200D1B0E0802471428946240427434E
:1017A0004946382900DDCDE01F2900DD59E120241C
:1017B0003E1C611A8E408A46B04649462E1CCE40D9
:1017C0005146B4468D4064464646494626436C1E03
:1017D000A541CF4035430199D71B8C464D1BAC45E5
:1017E00092415242BF1A041C984696E663466546EB
:1017F000334300D096E60026002700240025C4E6E7
:101800001F2B61DC2020C31A9B46131C59468B40BA
:1018100051469946019BCB409C464B46604603434C
:101820009C465B46019999406346481E8141194395
:101830005346DA40CDE63C1C2C435DD0F14389464B
:10184000002955D10199D21B8C464D1BAC458941CD
:101850004942571A041C98465FE69448844200D0D7
:10186000ADE6F7E5002271E7002387E73B1C2B4339
:10187000002C00D0DAE0002B00D113E1131C0199F9
:101880000B4300D1E6E54919A9429B41D2195B42BD
:10189000D7183B0200D421E1854B0D1C1F40041CCE
:1018A000D8E5381C2843002C40D1002800D083E024
:1018B000101C0199084303D0171C0D1C9846C9E55C
:1018C00000260027002560E65046131C2038C34040
:1018D000181C5346202B00D1C1E0402351465B1A0F
:1018E0009A40019911434A1E91410022014370E63A
:1018F0006E4CA04200D053E7171C019D041C984673
:10190000A8E5002C28D13C1C2C4300D18AE0DB4305
:101910009A46002B00D082E0019BD2199C46654478
:101920009D42894149425718041C59E600285BD161
:10193000101C0199084300D1A4E0171C0D1C984607
:101940005A4C87E53D436F1EBD410027EDB242E78B
:10195000041C0027002518E6544CA04262D05346D0
:1019600080245B429A46240427435346382B00DDEB
:101970008EE01F2B00DD9DE02024E31A9B463B1CDC
:1019800059468B40514699462B1CCB409C464B46B2
:10199000644623439C465B469D4063466C1EA541BE
:1019A000CF401D43019BBF189C4665449D42924118
:1019B0005242BF18041C13E6101C0199084300D1C1
:1019C00048E5681A844685428041BE1A4042301A72
:1019D000060200D447E68C464D1BAC458941D21B1C
:1019E0004942571A984635E5101C0199084334D0EE
:1019F00080247807ED08FF0824032843274208D0F5
:101A0000D608264205D1C90852070A43101C371CC4
:101A10009846FF00420F1743C500244C1AE5234C9B
:101A2000A042A2D1171C019D041C13E5002B35D048
:101A3000131C01990B4310D080247807ED08FF0890
:101A4000240328432742E4D0D3082342E1D1C90824
:101A500052070A43101C1F1CDBE7144CFAE4002257
:101A60003FE74C463E1C203CE6404946341C2029BA
:101A700032D04026761AB7403D436F1EBD41002745
:101A80002543A8E680270026FF03084C00257CE5B7
:101A90003D436F1EBD410027EDB283E7171C019D3A
:101AA000024CD7E4171C019DD4E4C046FF07000098
:101AB000FFFF7FFF54463B1C203CE3401C1C534669
:101AC000202B0DD0402351465B1A9F403D436F1E93
:101AD000BD410027254365E70027CDE70D1CC8E57C
:101AE0000027F3E70B0330B5134C1A0B4B00051C12
:101AF0005B0DC90F0020A34210DD104883420EDCAD
:101B000080200F4C40030243E41A1F2C0ADD0D48CD
:101B1000C31ADA40131C48424340581830BD0A4BE0
:101B2000C818FBE7281CE040084CA44663449A40D0
:101B3000131C0343EFE7C046FE0300001D04000032
:101B40003304000013040000FFFFFF7FEDFBFFFFE5
:101B500038B5041E16D0C50F00D04442201C00F03A
:101B600033F8174B1B1A0A2821DC021C211C1532E2
:101B700091400A1C0B21081AC4405B052403240B66
:101B80005B0D03E000250023002400220021101C2F
:101B900024030A0D1205240B14430A4A1B051440A2
:101BA0001C436400ED0764082C43211C38BD0B382E
:101BB00084405B052403240B5B0D0022E6E7C0464E
:101BC0001E040000FFFF0F801C2101231B0498420C
:101BD00001D3000C10391B0A984201D3000A0839BE
:101BE0001B09984201D30009043902A2105C401875
:101BF0007047C04604030202010101010000000019
:101C00000000000008B50A4B1A68002A01D1094AF1
:101C10001A601A6808491018884206D902F08EFC2A
:101C20000C2303600120404201E01860101C08BD35
:101C3000B4FFFF1FD0020020D002002002238078D2
:101C40008342804140427047437A0020013B012B90
:101C500003D901200B7801330B70704708B50020C1
:101C600002F010FA002803D00020011C02F0FEF957
:101C700008BD0000024A1368013313607047C04674
:101C8000F8FFFF1F08B5002001F00AF98023054A7C
:101C90009B001360044A00201360044901F070FCAB
:101CA00008BDC0460CA0145410A01454B8FFFF1F68
:101CB00008B5002001F0A0FC80238220074A5B00C9
:101CC0001360074A4000136001F07AFB0420FF30E4
:101CD00001F076FB002001F0E8F808BD0CA01454D8
:101CE00010A0145408B50023394A3A4913603A4AFF
:101CF00013603A4A0133FF331360394A1360394A9B
:101D00001360394A1360394A1360394A1360394AFB
:101D10001360012208780240081C3749002A01D0CC
:101D20000B6000E00A60354A3549136000220A6002
:101D300034490A60344A1360344A1360344A1360E9
:101D4000344A1360344A1360344A13600378DB0763
:101D500003D50220FF3001F025FB8520400001F073
:101D60002FFB092001F02CFB0C2001F029FB0520A2
:101D700001F026FB082001F023FB0620FF3001F0D4
:101D80001FFB0E20FF3001F01BFB8320400001F001
:101D900017FB0820FF3001F013FB0C20FF3001F08F
:101DA00001FB8120400001F0FDFA8220400001F09B
:101DB00007FB0420FF3001F003FB072001F000FBCC
:101DC000062001F0FDFA8020400001F0F9FA08BD7C
:101DD0000C90145400FEFF1F1090145414901454CF
:101DE000189014541C90145420901454249014549B
:101DF0003090145400A0145404A0145408A0145497
:101E00000CA0145410A0145414A0145418A014546A
:101E10001CA0145428A014542CA0145434A01454FE
:101E200008B5092001F0CCFA08BD08B50C2001F076
:101E3000C7FA08BD08B5FFF7F3FFFFF7F6FF8320E9
:101E4000400001F0AFFA08BDF0B5A7B015AC002115
:101E50000722201C02F0E5FB7C4A01251A9203228E
:101E600005AB1D9307AB1E9309AB20930DAB2293DB
:101E70000FAB239311AB249313AB25931AAB0BAF8A
:101E80001A71002003AA1C920493219725701F94B5
:101E900000F0FEFF281C00F0FBFF80226C4B1202BA
:101EA0001A6000F045FE00200095011C021C031C76
:101EB00000F016FB674A2B1C0221674800F05CFE0D
:101EC000291C281C00F064FE002002F017F80026F0
:101ED000FC2317A9DB00301C0B804D808D80CE8049
:101EE0000E818E7202F038F8311C2A1C03A802F011
:101EF00098FB69462A20159B0993A2880A85A27936
:101F000009180A7024216A465218213911700B935E
:101F1000A2886946BA80A2790838BA7105223A7057
:101F200002270593A2880A83A2790F758A76079300
:101F3000A2880A84A27909180A70694604220A77DD
:101F40000D93A28818300A87A27909180A70694689
:101F50000822063809180A7069460F93A2880C30C7
:101F600009180A806946A279C01909180A706A46D8
:101F700009210638121811706A461193A3880C3093
:101F8000121813806A46A379C019121813706A4692
:101F90000A230638121813704C226B469B181E70C9
:101FA00004AA2B1C1DA800F0C9FF311C381C00F02E
:101FB00083F82A492A4801F0D9F9FFF793FE08204F
:101FC000FF3001F0EFF9FA20400000F093FD082007
:101FD000FF3001F0F5F9FA20400000F08BFD0820F9
:101FE000FF3001F0DFF9FA20400000F083FD082007
:101FF000FF3001F0E5F9FA20400000F07BFD0820F9
:10200000FF3001F0CFF9FA20400000F073FD082006
:10201000FF3001F0D5F91349402000F0C7F812480D
:1020200000F0C0F8FFF706FFFA20800000F062FD24
:1020300080200002FFF726FE402000F0BBF80B488E
:1020400000F058FDFFF734FEF2E7C046491C0000DF
:102050002802002014FEFF1F18FFFF1F28FEFF1F8D
:1020600018FEFF1FECFFFF1FDCFFFF1F3075000095
:102070001FB5041C01A9002001F096FF01A86946C4
:1020800001F0D0FE009B68461C1901A9009401F0E4
:1020900051FE01A90122002001F0B2FF1FBD000086
:1020A0000022034B1A608022024B1206DA67704747
:1020B00000A01C5804E100E010B50A2308286FD8DE
:1020C0000C1CFEF757FA051B283C48626466570053
:1020D00001F0CAF80523012862D0FFF7E1FF201CB8
:1020E000FFF7C6FF0020011C00F04CFF041C00207D
:1020F000012100F04DFD002C4FD150E001F0B4F86B
:10210000062301284CD0FFF7CBFF201CFFF7B0FFC0
:1021100001200021E8E701F0A7F8082301283FD0BB
:1021200000F0BEFD002803D00020012100F030FDAA
:102130000220002100F026FF00282ED12FE001F020
:1021400093F8072300282BD0FFF7AAFF201CFFF7E6
:102150008FFF032005E0FFF7A3FF201CFFF788FF98
:102160000420002100F00EFF041C01F07DF800287F
:10217000C1D1BDE70820002100F004FF00280CD1E8
:102180000120011C00F004FD09E0052002E006200A
:1021900000E00720002100F0F5FE092300E0002305
:1021A000181C10BDC223FF3343607047052308701D
:1021B0004B607047F0B502278DB009AC53493A1C0B
:1021C000201C02F025FA524B0AAD1B78FA262B8010
:1021D000504B00201B6876006B60FA232370EB3BAA
:1021E0006370291C021C031C00940197029601F0E5
:1021F00029FB0020484B291C0093021C031C01975B
:10220000029601F02CFB0020434B291C0093021C7A
:10221000031C0197029601F022FB00203E4B291C73
:102220000093021C031C0197029601F018FBE523A2
:102230002370394B0197009302960020291C221C21
:10224000012301F00CFB0590002801D002205AE088
:102250002F4B187A5B7A000218437D2358430014F1
:102260000638FEF7E3FD0690FEF7C0FD0790FEF787
:10227000DDFD011C0698FEF73BFC2849FEF706FB36
:10228000FEF7B4FD2649031C079A059800F016FBDB
:10229000E0232370204B221C00930197029605989F
:1022A000291C012301F0DBFA041ECFD1184B187A48
:1022B0005B7A00021843FFF74BFC1A4A1A4BFEF7F1
:1022C000FDFD0022194BFEF7F9FD194A194BFFF7E6
:1022D0008FF80F1C061CFFF705FC051CFFF738FCE8
:1022E000021C0B1C301C391CFFF782F80022124B19
:1022F000FEF7E4FDFFF7F6FB1049031C2A1C201C27
:1023000000F0DCFA201C0DB0F0BDC04648490000CA
:10231000ECFFFF1F04FEFF1FF4FFFF1F0000C84279
:10232000CC490000D7A3703D0AF765400000F03E9D
:10233000CDCCCCCCCC6C474000005940EF490000DC
:102340000269C3689A4203D880681018013800E017
:10235000501EC01A7047F7B58368C668051C4068F0
:102360000191141C9F1B8019974203D902F050F968
:10237000A4190AE001993A1C02F04AF9019BE41BF6
:10238000D9196868221C02F043F9EC60F7BD0023FC
:10239000F7B5061C171CC568019100933369B46832
:1023A000AB4200D81B19013B5B1B641BBC4200D92C
:1023B0003C1C9C4200D91C1C7368221C58190199B2
:1023C00002F026F9009B2D191B190093019B3F1B5E
:1023D0001B190193B368EB1A5A1E93415B421D40CF
:1023E000F560002FDAD10098FEBD0000022310B581
:1023F000104C114A23616361104BA261E361912388
:10240000A2640F4A5B002362E26400230422A362F9
:102410006362E362A3656365E3652265E01D0949C4
:1024200002F0B8F9201C084902F0B4F92023A37186
:1024300010BDC04624010020144A00000000002006
:10244000FCFFFF1F1D4A0000214A0000F8B51823B9
:10245000451C5D434343141C134A0E1CD018C76A25
:102460005519012F0FD0002F07D0022F17D1221C92
:10247000281CFFF78CFF041C14E0281CFFF760FFEA
:10248000A0420ED305E0281CFFF75AFF844200D972
:10249000041C281C311C221CFFF75DFF02E00024F5
:1024A00000E03C1C201CF8BD24010020F8B50B4BBB
:1024B000071C1B780E1C151C002B01D1FFF796FF83
:1024C000EFF31084012181F31088381C311C2A1C81
:1024D000FFF7BCFF84F31088F8BDC046240100203C
:1024E000F7B5164C01932378051C0F1C161C002B06
:1024F00001D1FFF77BFF23699D421CD2EFF31082CD
:10250000012181F31088002D0CD01823691C594338
:102510006B43675061184E600199E31819620021FE
:102520009962596218235D43089B6419E36282F340
:102530001088002001E001204042FEBD240100205F
:10254000826810B5041C4068531C834205D820687B
:102550008154A360E3680133E360A26863689A4230
:102560000CD120692168FFF7A1FFA368984203D02E
:1025700001235B42E36001E00023A36010BD000083
:10258000F0B5051C1F1C081C012685B00A9C009193
:102590000192019B984204D30199FDF7F5FF0136A2
:1025A000F7E70296BE4200D2029701230B9A1A4027
:1025B000039218D1002C01D1002414E00B9B20269B
:1025C0009B070DD5002F0BD1103609E0281C311CBC
:1025D000FFF7B6FFEB68013C002B04DB002CEBD0CF
:1025E000029BA342F2D3EB68002B35DB0126012FBF
:1025F00001D9013F06E00098311CFDF7C5FF019BA2
:10260000984208D3019B5E43F1E7301C0199FDF726
:10261000BBFF061E10D00098311CFDF7B5FF331C20
:102620004343009AD31A00930C4B195C281CFFF704
:1026300087FFEB68002BE8DA039B002B0CD0002C03
:102640000AD0029BA34207D2281C2021FFF778FF63
:10265000EB68013C002BF2DA05B0F0BD284A00001F
:10266000F0B59FB00EAB099340230A930023161CCC
:1026700006900B930D900C930B784C1C002B04D1FF
:102680000C9B0393002B22DC15E1252B16D1002592
:1026900002314F1E3B782B2B0CD003D8232B27D194
:1026A000082308E02D2B03D0302B21D1022302E098
:1026B000012300E004231D430131EAE7191C09A8A6
:1026C000FFF73EFF211C0C9B002BD5DAD8E70B9AB5
:1026D000002A03D006980EA9FFF7E8FE0C9B03938F
:1026E0000B9B0493049A039B944663440C93E2E08F
:1026F00000243A78131C303B092B05D80A235C438D
:10270000303C0137A418F4E7002303932E2A0DD19F
:1027100001373A78131C303B092B07D80A23039959
:1027200001374B43303B9B180393F2E7397804237E
:102730000A1C9A43682A01D10137F7E7642926D099
:1027400008D8582900D195E063291AD0252900D04E
:10275000AFE0ABE0732900D195E00DD8702900D02F
:10276000A7E032680021131D336008230191009314
:10277000116809A8102296E0752971D0782979D0BE
:1027800097E0336819681A1D3260C9B28EE0336869
:102790001A1D1B683260DA17981804930123504001
:1027A0000593092805DD0A21FDF77EFF059B01330E
:1027B000F6E7059B039A934200D20592002C05D0C0
:1027C000049B002B01DB6B0700D5013CAB0702D556
:1027D000039B002B10D0EB070ED4002C01D100245A
:1027E0000AE0059BA34207D209A82021FFF7A8FE13
:1027F0000C9B013C002BF0DA0C9B0793002B58DB61
:10280000049B002B04DA5B42049309A82D2103E00A
:102810006B0703D52B2109A8FFF792FE0C9B002B19
:1028200047DB03232B40022B11D1039B002B0ED13E
:10283000002C01D100240AE0059BA34207D209A87D
:102840003021FFF77DFE0C9B013C002BF0DA0C9B46
:102850000593002B2DDB0094019509A8049906E04F
:102860003368009401951A1D1968326009A80A227C
:10287000039B18E0336800941A1D0195326009A883
:1028800019681022F4E733681A1D32601C68217839
:10289000013400290DD009A8FFF752FE0C9B0393C9
:1028A000002BF4DA05E0FFF76BFE02E009A8FFF762
:1028B00047FE791C07E70C981FB0F0BD0EB403B5B6
:1028C00003AB02CB01AA0193FFF7CAFE02B008BC1A
:1028D00003B0184708B5002000F080FD08BD08B51A
:1028E000002001F0EBFB08BD082110B5164B9A78CB
:1028F0000A4202D09A780A439A7088220021222044
:10290000124B52019950124A10708020114A400215
:1029100098501868104A024010481A601C58104A13
:102920002240C024A40422431A5080220D4B197265
:102930001A767F3A19705A700B4A11700C229979E5
:102940001142FBD110BDC04600D0074000700440CA
:1029500000E0074044100000FFFFF3FF04100000F8
:10296000FFFFFFF00040064000500640154B1648A0
:1029700010B5191E81420CD00022144B9B089B00FD
:102980009A4203D084588C500432F9E7104B996076
:1029900001E00F4A936000230E4A0F49891A8B42C7
:1029A00004D0D45C0D48C4540133F8E700230C4A2A
:1029B0000C49891A8B4204D00024D01804700133CA
:1029C000F8E710BD0000000000000000000000005B
:1029D00000ED00E08C4B0000244D000000FEFF1FC6
:1029E00098FFFF1FD0020020002341704360037056
:1029F0008360181C704710B54378041C0120FF2B1E
:102A000008D000F063FA63780133DBB2637000F042
:102A100051FA002010BD0020704738B5041C0D1C71
:102A200000F054FAE1682943E16000F043FA002025
:102A300038BD000000220A4B9A641A1C40329A6387
:102A40001A1C30329A621A1C20329A611A1C1032F7
:102A50009A60044A1360044B9B60DB607047C04679
:102A6000B0010020AC0100209C0100200022024B9C
:102A70001A60186880B270470C007C5038B54378F3
:102A8000041C0D1C002B0BD0002500F01FFA6378EE
:102A9000013BDBB26370257000F00CFA281C28E0C3
:102AA0000220002925D02378002B15D0FFF7DEFF68
:102AB0006368A268984201D3C01A03E0C01A802359
:102AC0005B02C018824213D200F000FA0023237088
:102AD00000F0F0F902200CE04B1C09D000F0F6F9F0
:102AE0000123237000F0E6F9FFF7C0FFA5606060E6
:102AF000032038BD38B5051CFFF7B8FF041CFFF7ED
:102B0000B5FFA04201D3001B03E08023001B5B0242
:102B1000C0188542F3D238BD08B5012801D100F0B4
:102B2000D5F908BD08B5012801D100F0C3F908BDE9
:102B300010B5FFF77FFF01230020084A0849136002
:102B4000084A094C1060086004212160074C21608C
:102B500007490B6007490860136010BD38800450B6
:102B6000000084500000045000000451040004518F
:102B700004000C500000045310B5044C2060217177
:102B80000020A2602373637310BDC04600020020C2
:102B9000F0B587B06B4602901B7A05AC23706B468C
:102BA00003911B7B3D4D63702B79029A0420934265
:102BB00071D92B7B6B730123A37000230193374ED4
:102BC0000093337B009A371C93421AD9009BB2685A
:102BD0009B009B58002B10D01A79D2070DD51A688C
:102BE000201C99689047002807D06B461B787373A8
:102BF000039B002B3AD005230193009B0133DBB2EA
:102C0000DDE7019E002E02D0039B012B2FD1012076
:102C1000FFF782FF0C20029B58432B68181800F026
:102C2000A7F86B461B7A01206B71FFF77BFF02232D
:102C30000025A3703B7BAB4216D9BA68AB009B580A
:102C4000002B0ED01A7992070BD51A68201C9968B0
:102C50009047002805D0039B7D73002B1AD00623D4
:102C600001930135EDB2E5E7019814E00526002354
:102C7000009FA370013FFFB2FF2F09D0AA68BB00DD
:102C80009B58002BF6D01A68201C99689047F1E7F2
:102C9000301C00E0062007B0F0BDC0460002002056
:102CA000014B58797047C0460002002013B500213F
:102CB0000378041C0191022B07D0032B0BD0012BAE
:102CC0000ED10279191C134801E00279114801ABB9
:102CD00000F0C4FF08E001A90E4801F001F803E08C
:102CE0000C4801A900F09EFF002812D1A3790A4ADE
:102CF000DB01DBB213706378084A5B00DBB2137050
:102D0000A278074B1A70E278064B1A706279064B6C
:102D10001A7016BD00400640184086530040865089
:102D20000040065001400650184016501F228023D4
:102D300002405B05D2051A43034943099B005B1817
:102D40001A43002313607047288004401F2280210B
:102D50000240D30549051943430904489B001B1849
:102D600019430123081C93400360704728800440E6
:102D70000022072373B5041C104D0093281C131C5C
:102D8000012101F08DF9201CFFF790FF0022637AEA
:102D9000217A0093281C131C01F082F9E379084A78
:102DA0009B041360074BA17A1D68281C00F0B4FF38
:102DB000281CE17A00F0B7FF002076BD00700440C7
:102DC00000700C59804A000008B5054800F0ECFE80
:102DD000044B1968C9B20131FDF7D6FB08BDC046E6
:102DE0000040064044801C5E08B5054800F0DCFE4B
:102DF000044B1968C9B20131FDF7C6FB08BDC046D6
:102E00000040064044801C5E08B5054800F0CCFE3A
:102E1000044B1968C9B20131FDF7B6FB08BDC046C5
:102E2000004006404480145808B5054800F0BCFE38
:102E3000044B1968C9B20131FDF7A6FB08BDC046B5
:102E400000400640448014580C4B1B68DBB2022B38
:102E50000DD0032B0ED0002B01D000200CE08021E0
:102E6000074A09021268101E8842F6D104E0054B99
:102E7000186801E0FA2080007047C04600700C59C5
:102E8000280200202C02002008B5FFF7DDFF08BD56
:102E900008B5024B185CFFF759FF08BD384A00001F
:102EA00008B56620FFF752FF08BD08B56620FFF79A
:102EB0003DFF08BD044A1368002B04D0013B13609A
:102EC000002B00D162B670471002002072B6024A91
:102ED00013680133136070471002002010B50B4BCC
:102EE0000B4A1278002A04D1013B002BF8D10320B1
:102EF0000AE0064C074801F079FA012803D0013CAA
:102F0000002CF7D1F3E7002010BDC046EA03000013
:102F100002D0075100E0074010B5064C064801F00A
:102F200065FA042804D0013C002CF7D1032000E00E
:102F3000002010BDEA03000000E00740F7B5071CC1
:102F40000E1C151C01930120002F18D0002916D04B
:102F5000FFF7E2FD0A4C0021201C102201F061FB6A
:102F600027602671002D06D06B461B79A560237360
:102F70006B461B7963730120FFF7D4FD0020FEBD73
:102F800014020020F0B5B24C8BB002900191237B6B
:102F900001206373FFF7C0FD2379029A934204D89E
:102FA0000120FFF7BFFD022050E1029A2368920042
:102FB000D6586B461B7907AC357823726B461B7A63
:102FC0002A1C237002239A4366600392012A01D0CF
:102FD000052D0AD101219F4801F05AF9002809D195
:102FE0000120FFF79FFD012030E1072D02D999480C
:102FF0000321F1E70123637200240094944F009AA7
:103000003B7B93421AD9009BBA689B009B58002BCC
:103010000FD01A79D2070CD51A6807A8996890477B
:10302000002806D06B461B7804247B73019B012B80
:1030300004D1009B0133DBB20093DFE70120FFF7EF
:1030400071FD854800F0D4FD039B012B1DD1013893
:10305000C0B2022811D8FFF7E7FE804B98420CD887
:10306000FFF7B2FE7E4FB84207D8FFF7CDFEB84259
:1030700003D8FFF7B9FEB84207D9019B012B01D154
:10308000062407E0002C05D1FAE7019B012B52D062
:10309000002C50D00120FFF73FFD002307AE009D1C
:1030A0007372013DEDB2FF2D40D0694BAA009B68C1
:1030B000D358002BF5D01A79D207F2D51A68301CF4
:1030C00099689047EDE7072205AB1A7000225A7005
:1030D000F2789A703279DA702B1C083B05A9022B22
:1030E00003D873798B71B379CB717378002B00D0CF
:1030F00084E0584801F000F9002800D00324002D96
:1031000000D08AE0FFF7EAFE0024002800D09DE00E
:103110000120FFF701FD6B464D4E1B7A0025B3736E
:10312000022307AF7B72337BAB427CD80120FFF7D1
:10313000F9FC201C8AE003200A2D00D986E0281C17
:10314000FDF70EFA06080A1940583339C1282D0038
:10315000002250E003224EE03E4801F047F90128EA
:1031600007D03C48002101F0A3F8FFF7B7FE041E8A
:103170006CD101223FE0374801F038F9042807D02C
:103180003448022101F094F8FFF7C6FE041E5DD119
:10319000042230E0072205AB1A70063A03E007224A
:1031A00005AB1A70043A5A7096E7022205AB1A7002
:1031B000013A1A7104E00222012105AB1A7019715B
:1031C0005A7189E70222002705AB1A702148013A9B
:1031D0001A715F7101F00AF9012800D17CE71D48DE
:1031E000391C01F065F8FFF779FE041EBC4200D1DE
:1031F00072E72BE0052205AB1A706DE7012D00D8B0
:1032000077E7B2780220174B002A02D01A690243EE
:1032100001E01A6982431A616BE7012D00D077E75C
:10322000FFF77AFE70E7B268AB009B58002B0AD01C
:103230001A79920707D51A68381C996890470028B0
:1032400001D0052475730135EDB26CE70BB0F0BD0C
:103250001402002000E007400040064040420F00FA
:1032600080841E0000ED00E008B5064801F0BEF8BD
:103270000023012803D00133042800D00A33181C8E
:1032800008BDC04600E00740F7B5FF2403681C4AAC
:103290001D0A25401C40AB009F581A4A061C9B582B
:1032A000281C0193FFF7F4FD211C0022381C01F0BB
:1032B000A5F8019BA4001C19842332795B052343E4
:1032C00052001A60802372795B0523431A609023B1
:1032D000B2795B05234312011A60F3790A4A144359
:1032E0001A042260002B0AD0084B5A5D002A06D02F
:1032F0001F23134001229A40131C054A1360F7BD97
:103300008C4A0000844A000000001818944A00000B
:1033100000E100E0F8B5FF24051C0368114A180A13
:1033200020401C4083009F580F4A9E58FFF7B0FD75
:10333000381C211C012201F061F86A68381C211C2C
:1033400001F06CF888232A7AA40034195B05234322
:1033500092001A6098235B051C436B7A9B012360E3
:10336000F8BDC0468C4A0000844A000038B50C1CE9
:10337000002802D1002C09D112E003680133F9D0F2
:10338000051C0835FFF780FF281CF6E7236801338A
:1033900006D0251C201C0C35FFF7BCFF2C1CF5E7C4
:1033A00038BD0000FF22030A134002400120904074
:1033B00002499B005B5858607047C0468C4A000029
:1033C000FF22030A134002400120904002499B0063
:1033D0005B5898607047C0468C4A000008B5084B9F
:1033E0008200D35894220233520513431B78002BDA
:1033F00002D000F041FA01E000F096FA08BDC046A4
:103400003C4A0000031C80220C33520513431B78F6
:10341000002BF7D00171704738B50D1C084B8000A8
:10342000C458201C291C1830FFF728FB0328F8D0AB
:10343000002801D004232374207CC0B238BDC046CC
:1034400024020020F0B589B00290161C8200374893
:10345000059310580EAB019035481B781458002086
:1034600007AA1080A27C8F0A04920122E274A2743F
:103470005A4253411E3FDBB203937B425F41FFB28E
:10348000CDB2874202D0CBB29C460D0A00216D001E
:10349000EDB28F4204D1391C002E01D16B46197B4D
:1034A0000D4307AB1D700122002F02D062465A70F7
:1034B0000222A360E2600198291CFFF7A3FF029893
:1034C0000F99FFF7A9FF237C002B0CD1002E0AD007
:1034D000059BA660E36031780198FFF793FF02989F
:1034E0000F99FFF799FF237C002B16D1039B002B2C
:1034F00013D0002F01D1002E0FD000230127A3608D
:103500000198E76000F0E2FF391C01982943FFF7BA
:1035100079FF02980F99FFF77FFF0023E3746B4652
:10352000207C1B7CC0B2A37409B0F0BD3C4A0000F3
:1035300024020020104A830010B598580F4A9C5866
:10354000E37C002B05D0237C052B02D0237C042BAD
:1035500009D19822831C5205134300221A7000F0EF
:10356000C7FF01236374A37C002B03D0201C1830F9
:10357000FFF741FA10BDC0463C4A0000240200207B
:10358000F7B5194B8700FB5801250093174BFE58E0
:10359000002E26D10C1C24220190081C311C01F0A5
:1035A00040F8201C311C1830FFF71EFA0198FFF775
:1035B00077FC009800F03AFF0C4B019AFC500C4B42
:1035C0009A5C1F2313402A1C9A40131C094A13605B
:1035D0009C22009B52050233134380226574351CE4
:1035E0001A70281CFEBDC0463C4A00002402002080
:1035F0003A4A000000E100E0F7B59C220027051CD4
:103600000D4E8400A359520501930C4BE35802332D
:1036100013431F70FFF749FC094B01985A5D1F23A4
:10362000134001229A40131C064A1830D367FFF753
:10363000F2F9A751F7BDC046240200203C4A000021
:103640003A4A000004E100E00A4B800070B5C5581A
:10365000094BC6584B68726993420AD00C1CFFF79D
:10366000D3FB0023011C6268281C00F0EDFE636898
:10367000736170BD3C4A000024020020F0B587B0A1
:103680000FAC334F334D267884006559E459677C7D
:10369000002F02D10320207458E0002E01D11E27F4
:1036A0000E9705930023A674E360A3602374236040
:1036B0006374071C04920391FFF7C6FF9023102147
:1036C000AA1C5B05134319708421EB1C49050B43AD
:1036D0000221197098235B05134302934023029A39
:1036E000281C137000F0F2FE039B381C198801237C
:1036F00000930E9B049A0193059BFFF7A3FE0D9B7D
:10370000002B15D0237C002B0FD10C9B281CA36011
:103710000D9BE3600C9B1978FFF774FE002E13D00D
:10372000381C0E99FFF778FE0EE0237C042B0BD19A
:1037300000230126029A1370EB785B09334202D012
:10374000281C00F0D5FE6674207CC0B207B0F0BD26
:10375000240200203C4A0000F0B58BB013AC247862
:10376000364E374D039484006559A459667C002E6B
:1037700002D1032020745FE0039E002E01D11E368B
:1037800012960993109B00262360119BA66063602C
:103790006B461B7BE660A3742674667407910892DF
:1037A0000490FFF751FF9023AF1C5B053B4305934B
:1037B0001023059A281C13708422EB1C5205134316
:1037C00002221A7098235B053B4306934023069A16
:1037D000137000F07BFE079B089A1988129B0096D5
:1037E00001930498099BFFF72DFE227CD2B2B242CE
:1037F00012D1059B11991A708C235B053B4301295B
:1038000000D108221A702B79039B002B12D0049848
:103810001299FFF701FE0DE0237C042B0AD1069BD1
:103820001E700126EB785B09334202D0281C00F0A1
:103830005FFE6674207CC0B20BB0F0BD2402002095
:103840003C4A00001FB5069C0094079C0194089C0C
:10385000029401240394FFF711FF04B010BD1FB5BB
:10386000069C0094079C0194089C029401240394F4
:10387000FFF772FF04B010BD842138B5244B8200DD
:10388000D5584905EB1C0B4302211970214BD45824
:1038900090226B1852051A431278E978D2B2890641
:1038A00034D5942149051943097800292ED0012ADD
:1038B00015D1EB78134202D0052323740CE0E368A2
:1038C000013BE360002B07D0A368281C5A1CA260B0
:1038D0005978FFF797FD19E0FFF72CFE16E06268B4
:1038E000013A6260002A06D08C214905012A05D1DF
:1038F0000B43082204E0FFF71DFE02E000220B4309
:103900001A7023685A1C22602A791A7038BDC04682
:103910003C4A000024020020842303305B05184346
:103920000223037070470000902149050A1CF0B57E
:103930008F4B071C8000C55889B0EB1C0493EB78B3
:10394000EE78DBB20593F3B20693AB1D1A439446AF
:1039500012789826D2B20792942252051A4314780C
:103960007605621E9441E2B2824C33430459A81C8E
:103970000090084301921A780178D2B2C9B203913B
:103980000199029000292FD0079900290CD010230B
:103990006246281C1370FFF7BFFF236BF8B20121AA
:1039A000002B00D0DCE0E0E0002A1DD04022281CE3
:1039B0001A70FFF7B1FF231C2C331B78002B02D1A8
:1039C000009A16433370236B002B03D0F8B280218A
:1039D000626B9847E37D002B04D0201C80211830B7
:1039E000FFF71BF80A23BFE0069B281C9E1101234A
:1039F0001E40FFF791FF0122059B1B11134219D0B6
:103A00009023049A5B05134310221A70002E04D0F1
:103A1000EB785B07DB0F10D11AE0082323702C34FE
:103A20002278002A00D0A0E0982300995B050B4380
:103A30001A709AE0002E16D0EAE71023029A13704B
:103A4000236B002B6ED0F8B20221626B984769E0BD
:103A5000029A1370236B002B03D0F8B20421626B1F
:103A600098472B7981E0039B012B29D1EB78039AAE
:103A7000134257D0029B1E702B79231C2C331B78CA
:103A8000002B09D1019B002B06D19823009A5B05DE
:103A900013436A4612791A70236B002B03D0F8B2D5
:103AA0000821626B9847A37D002B04D0201C0821BD
:103AB0001830FEF7B2FF00236360E360237554E023
:103AC0002B79A268DBB2002A2AD0226913702369FD
:103AD00001332361A368013BA360A368002B44D199
:103AE000019B002B13D1231C2C331B78002B06D1F8
:103AF0009823009A5B0513436A4612791A70E37D96
:103B0000002B04D0201C20211830FEF786FF002354
:103B100063752361236BF8B22021002B20D124E0B0
:103B2000072321E06368002B1DD0E3681A782B1C63
:103B300080210C3349050B431B78002BF7D02A71E9
:103B4000E3680133E3606368013B63606368002BF3
:103B50000BD1E3602375236B002B06D01021F8B244
:103B6000626B984701E00623237009B0F0BDC046A0
:103B70003C4A00002402002084235B0503431A789A
:103B800000239A4209D0802301305B051843037853
:103B9000012B01D0024B00E0024B181C7047C046BD
:103BA00080841E0000127A0010B50D4A831D134355
:103BB0001B78DBB2002B10D0012B08D1041CFFF7BF
:103BC000DBFF084B08341C432378D84006E0002074
:103BD000022B03D1044B186800E0044810BDC04616
:103BE000000008110000901028020020006CDC0288
:103BF0000B4A831D13431B78DBB2012B06D0181E22
:103C00000CD00320022B09D0052007E080230130CF
:103C10005B05184300784342584101307047C04665
:103C200000000811021C031C9C20183340050343AC
:103C3000802018700020064B134318700548931D10
:103C400003431B78D8B20028F8D1034B0B607047B0
:103C50000000081300000811006CDC02F8B5041C19
:103C60000D1C171C1E1CFFF7C3FF012802D1002DDD
:103C700004D007E0022805D1012D03D1201C311CFE
:103C8000FFF7D0FF8022631C520513431D7084236D
:103C900002225B0523431A70231C0C4A083313438A
:103CA0007A00D2B21A704022094B23431A70094A93
:103CB000A31D13431B78012BF9D1002D01D1064A16
:103CC00000E0064A3A4100203260F8BD0000901042
:103CD000000008130000081180841E0000127A0002
:103CE0000A4B10B51C681A1C0123002C0CD0802430
:103CF000074B03431C70074C831D23431B78022B87
:103D0000F9D113680B600023181C10BD2802002095
:103D100000000813000008119C23C9015B0518432B
:103D2000C9B201707047942349015B051843C9B2B9
:103D30000170704770B506680C1C301C2049FCF7F8
:103D400023FC1F49051C301CFCF7A4FC0E1C081C9E
:103D5000E1210901FCF718FCE121E0800901301C98
:103D6000FCF798FC0E1C081C3C21FCF70DFC3C21C8
:103D70002081301CFCF78EFC6E22124BA172238036
:103D8000FF32238895420BD9AD1A032201339BB22F
:103D90002380B72113405A1E93414900CA1AF0E705
:103DA00009499B0700D109490123CA5C954201D802
:103DB000638003E00133AD1A0D2BF6D1A58070BDF1
:103DC00080510100B2070000674A00005A4A000013
:103DD00030B5114A0188031C8A180020812A19D89D
:103DE0005A88541E0B2C15D89C88651E1E2D11D880
:103DF000DD88172D0ED81D893B2D0BD89B7A3B2BC8
:103E000008D88B0701D0054B00E0054B9B5CA34213
:103E10004041C0B230BDC0464EF8FFFF674A0000C7
:103E20005A4A000070B5124A838804889A186E2393
:103E3000FF3363434588D318A2089B180D4A6E00D0
:103E4000B25A9B18A20702D1022D00D8013B0B6089
:103E5000E1233C22C4881B015C4303895343827ADB
:103E6000E3189A180868044B4343D3180B6070BDDD
:103E70004A05F5FF404A000080510100084B1A68CE
:103E800080231B029A4209D1A02310305B051843FE
:103E90000368002B02D10133FF3303607047C04633
:103EA00028020020021C802110B5002301244905AE
:103EB00010320A431460136090224360520504607C
:103EC0001C3002431360882252050243136084228F
:103ED0005205024308431360036010BD031C902287
:103EE00014335205134300221A60426010320160FD
:103EF0001A60704703680B6070470000114B820026
:103F000070B5D5588022104B92051A60041C281CED
:103F1000FFF7C8FF281CFFF7B1FF01201F22011C7B
:103F20000A4B0B4E1B5D345D134099402240C02567
:103F30000B1C904007496D004B5148510B600860C5
:103F400070BDC046784A00003C80845E754A00001F
:103F5000744A000000E100E0F7B50027114B800033
:103F6000C658081C0D1C0197FFF732FF041EBC4207
:103F700016D001A9281CFFF755FF381CFEF784FF57
:103F8000011C80200002814206D0FCF7FDFA011CD2
:103F90000198FCF7F9FA0190301C0199FFF79EFF98
:103FA000201CFEBD784A0000F7B50025124B8000AA
:103FB000C4580E1C201C01A90195FFF79BFF281C6B
:103FC000FEF762FF051C8020000285420ED00B4BDD
:103FD000291C04341C43FCF7D7FA2768019C291CD0
:103FE0004443B8B2FCF7D0FA20180190311C01A864
:103FF000FFF7A0FEF7BDC046784A00000000781029
:10400000F0B50026184B800085B0C458081C0F1C62
:1040100001920396FFF7DCFE051EB54201D1002593
:104020001EE0381C03A9FFF7FDFE301C2768FEF7D1
:104030002BFF011C80200002814206D0FCF7A4FA6D
:10404000011C0398FCF7A0FA0390039BBB42E6D344
:10405000A36088231C345B051C43019B9B002360E9
:10406000281C05B0F0BDC046784A00008822044BE9
:104070008000C35852051C331343890019607047F0
:10408000784A00008822054B8000C358520514333B
:1040900013431868431E9841C0B27047784A000025
:1040A0006B46E0221B78D2021B0413400907194318
:1040B000014BC018016070474410000008B5084B60
:1040C0008200D35890220333520513431B78002BF0
:1040D00002D000F025F801E000F08AF808BDC046E3
:1040E0007C4A000008B50C4B8000C2580B4B0021E5
:1040F000C3589C200333400518431171017094206C
:10410000400503431970137F8B4203D02032101CEB
:10411000FEF771FC08BDC046300200207C4A00005A
:1041200010B51E4B8200D3581D4951581A79002AE8
:1041300032D05A69002A11D09C2252050A431278C3
:10414000002A0BD08A79DC68D2B2002C03D022700E
:10415000DA680132DA605A69013A5A611A69002A4A
:1041600012D0942252050A431278002A0CD09A6881
:10417000141E02D0147801329A608C711A69013AC7
:104180001A619A6901329A611A69002A04D15B693D
:10419000002B01D1FFF7A6FF10BDC0463002002062
:1041A0007C4A0000104A80008158002208B50F4B5D
:1041B0000331C358581CC2779C2040050843DA627B
:1041C0001A701A835A629A621A6302709420400528
:1041D00001430A701A1C38321278002A03D0181DC5
:1041E0000121FEF71AFC08BD7C4A000030020020C5
:1041F00038B5254B8200D35824495258591CC97FE1
:1042000000293FD0D96A002916DB942149051143C2
:104210000978002910D0596A1C7F002905D0DD6A71
:10422000002D02DD0C78013159629471D96A01398F
:10423000D962596B01315963D96A002905DA94248E
:10424000D11C6405214300240C70196B002911DD79
:104250009C2149051143097800290BD09279996A6C
:10426000D2B2002903D00A709A6A01329A621A6B9C
:10427000013A1A63DA6A002A04DC1B6B002B01DCAA
:10428000FFF790FF38BDC046300200207C4A000096
:10429000012903D0032909D1842300E094235B057D
:1042A00018430078431E9841C0B200E000207047D8
:1042B000034B013049011843C9B201707047C04631
:1042C00000008812942302305B0549011843C9B2EB
:1042D00001707047034B023089011843C9B2017065
:1042E0007047C046000008138C2302305B05C900EC
:1042F0001843C9B201707047F7B5384EC21C164357
:1043000037780B78FFB20122072B65D8041C181CE4
:104310000D1CFCF72FF904192A0D192A2A3A00233B
:104320002F480134044323703378012BFCD152E031
:104330000322012F50D14023294801340443237024
:104340003378042BFCD146E00021012B01D004235B
:1043500002213078032298423ED1201CFFF7A8FFAB
:104360000421204A13698B4333E00227BB4207D163
:1043700000270B79BB4203D04979201CFFF7AAFF25
:10438000194801340443277019E004231649621CBC
:104390000A4313706A78A31C0B431A706B78002BC6
:1043A00006D1AB78002B03D0E978201CFFF78AFFF9
:1043B000AB79002B03D0E979201CFFF795FF04218E
:1043C0003378084ADBB20193019B013301931369EF
:1043D0000B43136130BF0022101CFEBD00003010E3
:1043E0000000881200ED00E000001010024B0330C6
:1043F00018430078C0B2704700003010143080239A
:10440000012A04D18A401B051843026005E0DB0441
:10441000184301238B40D9430160704701238B402F
:10442000002A01D0436000E0836070470023C2226D
:10443000037043708370C37043718371C3710372DF
:1044400042728372C3727047F0B5002789B003933C
:10445000FA2301253C1C9B005343069007910293CD
:104460006D4201970123A3400493174B9E1CCA334E
:104470000593049B318807985943FCF785F8029B04
:10448000029AC31A824200D9131AAB4204D2B21E56
:10449000177801941D1E03D0059B04369E42E8D177
:1044A0000134032C01D0002DDCD1039B002B00D064
:1044B0001D603F231F40019B9B011F43069BFFB2D2
:1044C0005F7009B0F0BDC046964A000094230230E8
:1044D0005B0503431B78002B04D088235B0518433E
:1044E000042303E080231B05184330230370704727
:1044F0009422831C52051A431278011C0220012ABF
:1045000012D18022D2041343CF221A708022D2000B
:104510002023C878034004D0013A002A03D0C046C3
:10452000F6E7181C00E009207047011C002008B5C0
:10453000021C031C00F036F908BD0000014B18688E
:104540007047C04690FFFF1F084B10B5041C002B9E
:1045500002D0002100F082F9054B1868836A002B15
:1045600000D09847201C00F0EDF9C0465D480000DF
:10457000604B000038B5074B074C1D1CE41AA41013
:10458000002C04D0013CA300EB589847F8E700F05A
:10459000EFFA38BD884B00008C4B00000E4B70B515
:1045A00000251E1C0D4CE41AA410A54204D0AB003B
:1045B000F35898470135F8E700F0D4FA084B002586
:1045C0001E1C084CE41AA410A54204D0AB00F358FA
:1045D00098470135F8E770BD844B0000844B00001C
:1045E000844B0000884B000008B5034B011C186881
:1045F00000F066F808BDC04690FFFF1F08B5034BEA
:10460000011C186800F016F808BDC04690FFFF1F97
:10461000002310B5934203D0CC5CC4540133F9E7B6
:1046200010BD031C8218934202D019700133FAE7BF
:104630007047000030B500293ED004390B68002BCC
:1046400000DAC9181D4A1368141C002B02D14B60F4
:10465000116031E099420DD208680A189A4203D1DC
:104660001368C3180B6053684B60216024E08A42D2
:1046700003D8131C5A68002AF9D11D685C198C42B2
:104680000BD10968691858181960904214D1106844
:104690005268091819605A600EE08C4202D90C2346
:1046A000036009E008680C18944203D1146852684A
:1046B000001908604A60596030BDC04638020020C9
:1046C000032370B5CC1C9C430834051C0C2C01D270
:1046D0000C2405E0002C03DA0C2300202B6042E0C0
:1046E0008C42F9D3204A1368101C191C002913D0DE
:1046F0000A68121B0DD40B2A02D90A608B181FE01E
:104700008B4202D15A6802601BE04A685A600B1C57
:1047100017E00B1C4968E9E7144E3368002B03D1FE
:10472000281C00F025F83060281C211C00F020F81F
:10473000031C421CD0D00322C61C964386420AD1D9
:104740001C60181C07210B301A1D8843821A0AD0DE
:104750005142995007E0311A281C00F009F8431C17
:10476000BAD0331CECE770BD3802002034020020C0
:1047700038B50023064C051C081C2360FDF742FADF
:10478000431C03D12368002B00D02B6038BDC046EA
:10479000CC020020031C0A7801311A700133002A70
:1047A000F9D17047F7B52A4D061C2C680091171CEB
:1047B0000193002C01D1274C2C6063681F2B15DD61
:1047C000254B002B02D10120404240E08C20FFF716
:1047D0000BFF041EF7D02A6800230260021C8832F7
:1047E0004360286013609E420AD128E0002E26D044
:1047F000231C88331868002810D1174B002BE2D0F7
:1048000084204000FFF7F0FE0028DCD0031C0022CB
:10481000FC335A609A60231C883318600122616857
:104820008A408B00C31880C3FC304168114341604B
:104830000199D967022E02D183681A438260002051
:1048400063685A1C62600233009A9B001A51FEBDD5
:10485000C80200203C020020E9450000F0B587B006
:1048600005900391344D2C68002C63D0231C8833B1
:104870001E6863685A1E0192304A9B189B00F71805
:104880000433E3180293019B002B3DDB039B002BB9
:1048900007D0002E31D03B1C80331B68039A934213
:1048A0002BD16268029B0199013A5B68914201D168
:1048B000616002E0002202994A60002B1DD062680C
:1048C0000492002E07D0012201998A40311CFC314C
:1048D0004868104201D1984708E08968114203D125
:1048E00005983968984701E038689847049B6268E2
:1048F0009342B7D12B68A342B4D1019B043F013B43
:104900000193029B043BBDE70D4B002B12D0626864
:104910002368002A0BD1002B09D02B60002E02D077
:10492000301CFFF76BFE201CFFF768FE9BE7251C81
:104930001C1C99E707B0F0BDC8020020FFFFFF3F35
:10494000FD450000FEE7C046FFFF0000C60900006D
:10495000BE090000BE090000B609000008090000F9
:1049600008090000AC090000B609000008090000B1
:10497000AC09000008090000B60900000A0900009F
:104980000A0900000A090000500A0000A8100000EF
:1049900086100000861000007A1000006E0F0000E4
:1049A0006E0F00006E1000007A1000006E0F000005
:1049B0006E1000006E0F00007A100000720F0000F1
:1049C000720F0000720F0000881200000D0A52657D
:1049D0006C61746976652068756D69646974793A8B
:1049E0002025642E25642070657263656E74000D49
:1049F0000A54656D70657261747572653A2025643C
:104A00002E256420646567726565732043656C6359
:104A1000697573005465726D696E616C005254540F
:104A2000005345474745520030313233343536372D
:104A30003839414243444546898A080000600640AF
:104A4000000000001F003B005A0078009700B500EE
:104A5000D400F300110130014E01001F1D1F1E1F65
:104A60001E1F1F1E1F1E1F001F1C1F1E1F1E1F1F7D
:104A70001E1F1E1F1514000000D0034000600740D9
:104A8000005006400090044000A0044000F00F4099
:104A900040F00F401E1F000014000100160002002D
:104AA000180003001A0004001C0005001E00090085
:104AB0002000060022000A002400070028000C0045
:104AC0002C001000300011003800120040000F00D0
:104AD000440013004800140050001500580019004D
:104AE0006000160068001A007000170080001C00AB
:104AF00090001D00A0001E00C0002200E0001F006A
:104B0000F0002300000124002001250040012600C0
:104B100080012A00C0012700E0012B0000022C00C8
:104B200040022D0080022E000003320080032F007F
:104B3000C003330000043400800435000005360053
:104B400000063A000007370080073B0000083C00E1
:104B500000093D00000A3E00000C3F00000F43002A
:104B600030FFFF1FF8B5C046F8BC08BC9E46704732
:0C4B7000F8B5C046F8BC08BC9E46704773
:084B7C0048B9FF7F01000000B1
:044B840089040000A0
:044B88005D040000C8
:104B8C0001000000010000003D1C000003000000BB
:104B9C000000000008FEFF1F0101000001010000E1
:104BAC00FFFFFFFF000000000000000001000000FC
:104BBC0001000000010000000100000001000000E5
:104BCC0002000000010000000100000005000000D0
:104BDC0001000000010000000800000001000000BE
:104BEC00010000000C0000000100000001000000AA
:104BFC0000010000010000000100000005010000A0
:104C0C00010000000100000006010000010000008E
:104C1C00010000000701000001000000010000007D
:104C2C000A01000001000000010000000B0100005F
:104C3C0001000000010000000D0100000100000057
:104C4C000100000002010000010000000100000052
:104C5C00030100000100000001000000040100003D
:104C6C00010000000100000006000000010000002F
:104C7C00010000000700000001000000010000001E
:104C8C00090000000100000001000000FFFFFFFF11
:104C9C000000000000000000010100000000000006
:104CAC0000010000000000000000010000010000F5
:104CBC0000000000000000000000000000000000E8
:104CCC0000000000000000000000000000000000D8
:104CDC005E4B00000000000000000000000000001F
:104CEC0000000000000000000000000000000000B8
:104CFC0000000000000000000000000000000000A8
:104D0C000000000000000000000000000000000097
:084D1C0030FFFF1F0000000042
:0400000300000531C3
:00000001FF
